{
  "contractName": "connect",
  "abi": [
    {
      "inputs": [],
      "payable": false,
      "stateMutability": "nonpayable",
      "type": "constructor"
    },
    {
      "constant": true,
      "inputs": [],
      "name": "login",
      "outputs": [
        {
          "internalType": "string",
          "name": "",
          "type": "string"
        }
      ],
      "payable": false,
      "stateMutability": "view",
      "type": "function"
    },
    {
      "constant": false,
      "inputs": [
        {
          "internalType": "string",
          "name": "_name",
          "type": "string"
        }
      ],
      "name": "signup",
      "outputs": [],
      "payable": false,
      "stateMutability": "nonpayable",
      "type": "function"
    },
    {
      "constant": true,
      "inputs": [],
      "name": "checkifowner",
      "outputs": [
        {
          "internalType": "bool",
          "name": "",
          "type": "bool"
        }
      ],
      "payable": false,
      "stateMutability": "view",
      "type": "function"
    },
    {
      "constant": false,
      "inputs": [
        {
          "internalType": "uint256",
          "name": "_amount",
          "type": "uint256"
        }
      ],
      "name": "donate",
      "outputs": [],
      "payable": false,
      "stateMutability": "nonpayable",
      "type": "function"
    },
    {
      "constant": false,
      "inputs": [
        {
          "internalType": "address",
          "name": "_add",
          "type": "address"
        },
        {
          "internalType": "uint256",
          "name": "_amount",
          "type": "uint256"
        },
        {
          "internalType": "string",
          "name": "_cause",
          "type": "string"
        }
      ],
      "name": "utilize",
      "outputs": [],
      "payable": false,
      "stateMutability": "nonpayable",
      "type": "function"
    },
    {
      "constant": true,
      "inputs": [
        {
          "internalType": "address",
          "name": "_add",
          "type": "address"
        }
      ],
      "name": "getDonationPerUser",
      "outputs": [
        {
          "internalType": "uint256",
          "name": "",
          "type": "uint256"
        }
      ],
      "payable": false,
      "stateMutability": "view",
      "type": "function"
    },
    {
      "constant": true,
      "inputs": [
        {
          "internalType": "address",
          "name": "_add",
          "type": "address"
        }
      ],
      "name": "getUserDonUtilPerUser",
      "outputs": [
        {
          "components": [
            {
              "internalType": "uint256",
              "name": "amount",
              "type": "uint256"
            },
            {
              "internalType": "string",
              "name": "cause",
              "type": "string"
            }
          ],
          "internalType": "struct connect.DonUtil[]",
          "name": "",
          "type": "tuple[]"
        }
      ],
      "payable": false,
      "stateMutability": "view",
      "type": "function"
    },
    {
      "constant": true,
      "inputs": [],
      "name": "getAllUsers",
      "outputs": [
        {
          "internalType": "address[]",
          "name": "",
          "type": "address[]"
        }
      ],
      "payable": false,
      "stateMutability": "view",
      "type": "function"
    },
    {
      "constant": false,
      "inputs": [
        {
          "internalType": "address payable",
          "name": "_to",
          "type": "address"
        }
      ],
      "name": "destroySmartContract",
      "outputs": [],
      "payable": false,
      "stateMutability": "nonpayable",
      "type": "function"
    }
  ],
  "bytecode": "0x608060405234801561001057600080fd5b50336000806101000a81548173ffffffffffffffffffffffffffffffffffffffff021916908373ffffffffffffffffffffffffffffffffffffffff160217905550611236806100606000396000f3fe608060405234801561001057600080fd5b50600436106100935760003560e01c8063b34e97e811610066578063b34e97e81461011c578063e2842d791461013a578063ec4050ba14610158578063f14faf6f14610176578063ff66df5c1461019257610093565b806339df43ff14610098578063519c6377146100b457806393283351146100d05780639ca259f014610100575b600080fd5b6100b260048036036100ad9190810190610b5e565b6101c2565b005b6100ce60048036036100c99190810190610bee565b61026a565b005b6100ea60048036036100e59190810190610b35565b610327565b6040516100f79190610f24565b60405180910390f35b61011a60048036036101159190810190610b87565b610471565b005b6101246106bd565b6040516101319190610f61565b60405180910390f35b61014261079c565b60405161014f9190610f02565b60405180910390f35b61016061082a565b60405161016d9190610f46565b60405180910390f35b610190600480360361018b9190810190610c2f565b610892565b005b6101ac60048036036101a79190810190610b35565b61091a565b6040516101b99190610fe3565b60405180910390f35b6000809054906101000a900473ffffffffffffffffffffffffffffffffffffffff1673ffffffffffffffffffffffffffffffffffffffff163373ffffffffffffffffffffffffffffffffffffffff1614610251576040517f08c379a000000000000000000000000000000000000000000000000000000000815260040161024890610fa3565b60405180910390fd5b8073ffffffffffffffffffffffffffffffffffffffff16ff5b80600460003373ffffffffffffffffffffffffffffffffffffffff1673ffffffffffffffffffffffffffffffffffffffff16815260200190815260200160002090805190602001906102bd929190610963565b5060053390806001815401808255809150509060018203906000526020600020016000909192909190916101000a81548173ffffffffffffffffffffffffffffffffffffffff021916908373ffffffffffffffffffffffffffffffffffffffff1602179055505050565b6060600360008373ffffffffffffffffffffffffffffffffffffffff1673ffffffffffffffffffffffffffffffffffffffff168152602001908152602001600020805480602002602001604051908101604052809291908181526020016000905b82821015610466578382906000526020600020906002020160405180604001604052908160008201548152602001600182018054600181600116156101000203166002900480601f01602080910402602001604051908101604052809291908181526020018280546001816001161561010002031660029004801561044e5780601f106104235761010080835404028352916020019161044e565b820191906000526020600020905b81548152906001019060200180831161043157829003601f168201915b50505050508152505081526020019060010190610388565b505050509050919050565b6000809054906101000a900473ffffffffffffffffffffffffffffffffffffffff1673ffffffffffffffffffffffffffffffffffffffff163373ffffffffffffffffffffffffffffffffffffffff1614610500576040517f08c379a00000000000000000000000000000000000000000000000000000000081526004016104f790610f83565b60405180910390fd5b81600260008573ffffffffffffffffffffffffffffffffffffffff1673ffffffffffffffffffffffffffffffffffffffff168152602001908152602001600020541015610582576040517f08c379a000000000000000000000000000000000000000000000000000000000815260040161057990610fc3565b60405180910390fd5b81600260008573ffffffffffffffffffffffffffffffffffffffff1673ffffffffffffffffffffffffffffffffffffffff1681526020019081526020016000205403600260008573ffffffffffffffffffffffffffffffffffffffff1673ffffffffffffffffffffffffffffffffffffffff1681526020019081526020016000208190555061060f6109e3565b82816000018181525050818160200181905250600360008573ffffffffffffffffffffffffffffffffffffffff1673ffffffffffffffffffffffffffffffffffffffff16815260200190815260200160002081908060018154018082558091505090600182039060005260206000209060020201600090919290919091506000820151816000015560208201518160010190805190602001906106b39291906109fd565b5050505050505050565b6060600460003373ffffffffffffffffffffffffffffffffffffffff1673ffffffffffffffffffffffffffffffffffffffff1681526020019081526020016000208054600181600116156101000203166002900480601f0160208091040260200160405190810160405280929190818152602001828054600181600116156101000203166002900480156107925780601f1061076757610100808354040283529160200191610792565b820191906000526020600020905b81548152906001019060200180831161077557829003601f168201915b5050505050905090565b6060600580548060200260200160405190810160405280929190818152602001828054801561082057602002820191906000526020600020905b8160009054906101000a900473ffffffffffffffffffffffffffffffffffffffff1673ffffffffffffffffffffffffffffffffffffffff16815260200190600101908083116107d6575b5050505050905090565b60008060009054906101000a900473ffffffffffffffffffffffffffffffffffffffff1673ffffffffffffffffffffffffffffffffffffffff163373ffffffffffffffffffffffffffffffffffffffff16141561088a576001905061088f565b600090505b90565b80600260003373ffffffffffffffffffffffffffffffffffffffff1673ffffffffffffffffffffffffffffffffffffffff1681526020019081526020016000205401600260003373ffffffffffffffffffffffffffffffffffffffff1673ffffffffffffffffffffffffffffffffffffffff1681526020019081526020016000208190555050565b6000600260008373ffffffffffffffffffffffffffffffffffffffff1673ffffffffffffffffffffffffffffffffffffffff168152602001908152602001600020549050919050565b828054600181600116156101000203166002900490600052602060002090601f016020900481019282601f106109a457805160ff19168380011785556109d2565b828001600101855582156109d2579182015b828111156109d15782518255916020019190600101906109b6565b5b5090506109df9190610a7d565b5090565b604051806040016040528060008152602001606081525090565b828054600181600116156101000203166002900490600052602060002090601f016020900481019282601f10610a3e57805160ff1916838001178555610a6c565b82800160010185558215610a6c579182015b82811115610a6b578251825591602001919060010190610a50565b5b509050610a799190610a7d565b5090565b610a9f91905b80821115610a9b576000816000905550600101610a83565b5090565b90565b600081359050610ab1816111ae565b92915050565b600081359050610ac6816111c5565b92915050565b600082601f830112610add57600080fd5b8135610af0610aeb8261102b565b610ffe565b91508082526020830160208301858383011115610b0c57600080fd5b610b1783828461115b565b50505092915050565b600081359050610b2f816111dc565b92915050565b600060208284031215610b4757600080fd5b6000610b5584828501610aa2565b91505092915050565b600060208284031215610b7057600080fd5b6000610b7e84828501610ab7565b91505092915050565b600080600060608486031215610b9c57600080fd5b6000610baa86828701610aa2565b9350506020610bbb86828701610b20565b925050604084013567ffffffffffffffff811115610bd857600080fd5b610be486828701610acc565b9150509250925092565b600060208284031215610c0057600080fd5b600082013567ffffffffffffffff811115610c1a57600080fd5b610c2684828501610acc565b91505092915050565b600060208284031215610c4157600080fd5b6000610c4f84828501610b20565b91505092915050565b6000610c648383610c84565b60208301905092915050565b6000610c7c8383610ea7565b905092915050565b610c8d81611101565b82525050565b6000610c9e82611077565b610ca881856110bd565b9350610cb383611057565b8060005b83811015610ce4578151610ccb8882610c58565b9750610cd6836110a3565b925050600181019050610cb7565b5085935050505092915050565b6000610cfc82611082565b610d0681856110ce565b935083602082028501610d1885611067565b8060005b85811015610d545784840389528151610d358582610c70565b9450610d40836110b0565b925060208a01995050600181019050610d1c565b50829750879550505050505092915050565b610d6f81611125565b82525050565b6000610d8082611098565b610d8a81856110f0565b9350610d9a81856020860161116a565b610da38161119d565b840191505092915050565b6000610db98261108d565b610dc381856110df565b9350610dd381856020860161116a565b610ddc8161119d565b840191505092915050565b6000610df4601c836110f0565b91507f6f6e6c79206f776e65722063616e207574696c697a652066756e6473000000006000830152602082019050919050565b6000610e346013836110f0565b91507f596f7520617265206e6f7420616c6c6f776564000000000000000000000000006000830152602082019050919050565b6000610e746012836110f0565b91507f496e73756666696369656e742066756e647300000000000000000000000000006000830152602082019050919050565b6000604083016000830151610ebf6000860182610ee4565b5060208301518482036020860152610ed78282610dae565b9150508091505092915050565b610eed81611151565b82525050565b610efc81611151565b82525050565b60006020820190508181036000830152610f1c8184610c93565b905092915050565b60006020820190508181036000830152610f3e8184610cf1565b905092915050565b6000602082019050610f5b6000830184610d66565b92915050565b60006020820190508181036000830152610f7b8184610d75565b905092915050565b60006020820190508181036000830152610f9c81610de7565b9050919050565b60006020820190508181036000830152610fbc81610e27565b9050919050565b60006020820190508181036000830152610fdc81610e67565b9050919050565b6000602082019050610ff86000830184610ef3565b92915050565b6000604051905081810181811067ffffffffffffffff8211171561102157600080fd5b8060405250919050565b600067ffffffffffffffff82111561104257600080fd5b601f19601f8301169050602081019050919050565b6000819050602082019050919050565b6000819050602082019050919050565b600081519050919050565b600081519050919050565b600081519050919050565b600081519050919050565b6000602082019050919050565b6000602082019050919050565b600082825260208201905092915050565b600082825260208201905092915050565b600082825260208201905092915050565b600082825260208201905092915050565b600061110c82611131565b9050919050565b600061111e82611131565b9050919050565b60008115159050919050565b600073ffffffffffffffffffffffffffffffffffffffff82169050919050565b6000819050919050565b82818337600083830152505050565b60005b8381101561118857808201518184015260208101905061116d565b83811115611197576000848401525b50505050565b6000601f19601f8301169050919050565b6111b781611101565b81146111c257600080fd5b50565b6111ce81611113565b81146111d957600080fd5b50565b6111e581611151565b81146111f057600080fd5b5056fea365627a7a723158202e97fe0593dc1ecc2dc8e6556b1e74a0ce4631d352213ce24c49a50d8a7772946c6578706572696d656e74616cf564736f6c63430005100040",
  "source": "pragma solidity ^0.5.0;\r\npragma experimental ABIEncoderV2;\r\n\r\n\r\n/**\r\n* @title Connect\r\n* @author Abhishek Vispute\r\n*/\r\ncontract connect {\r\n \r\n   address owner;\r\n\r\n   modifier onlyowner\r\n     {\r\n         require(msg.sender==owner,\"You are not allowed\");\r\n         _;\r\n     }\r\n   \r\n   bytes32 d;\r\n\r\n   struct DonUtil {\r\n        uint256 amount;\r\n        string cause;\r\n    }\r\n\r\n   mapping(address => uint256) donationsperuser;\r\n   mapping(address => DonUtil []) userDonUtil; \r\n   mapping(address => string) regDonors;\r\n   address [] regDonorsAdd;\r\n   \r\n   constructor()public{\r\n        owner = msg.sender;\r\n    }\r\n   \r\n   \r\n   function login() public view returns (string memory)\r\n   {\r\n       return regDonors[msg.sender];\r\n   }\r\n   function signup (string memory _name)public\r\n   {\r\n     regDonors[msg.sender] = _name;\r\n     regDonorsAdd.push(msg.sender);\r\n   }\r\n   \r\n   function checkifowner() public view returns (bool)\r\n   {\r\n       if(msg.sender==owner) return true;\r\n       else return false;\r\n   }\r\n   function donate(uint256 _amount) public \r\n   {\r\n    //require reg user\r\n    donationsperuser[msg.sender] = donationsperuser[msg.sender] + _amount;\r\n   }\r\n   \r\n   function utilize(address _add, uint256 _amount, string memory _cause ) public\r\n   {\r\n     require(msg.sender == owner, \"only owner can utilize funds\");\r\n     require(donationsperuser[_add] >= _amount,\"Insufficient funds\");\r\n     donationsperuser[_add] = donationsperuser[_add] - _amount;\r\n    \r\n     DonUtil memory temp;\r\n     temp.amount = _amount;\r\n     temp.cause = _cause;\r\n     \r\n     userDonUtil[_add].push(temp);\r\n   }\r\n    \r\n\r\n   \r\n    \r\n    function getDonationPerUser(address _add) public view returns(uint256)\r\n    {\r\n        return donationsperuser[_add];\r\n    } \r\n\r\n\r\n    function getUserDonUtilPerUser(address _add) public view returns(DonUtil [] memory)\r\n    {\r\n        return userDonUtil[_add];\r\n    } \r\n\r\n    function getAllUsers() public view returns(address [] memory)\r\n    {\r\n    return regDonorsAdd;\r\n    }\r\n    \r\n    function destroySmartContract(address payable _to) public onlyowner {\r\n    \r\n    selfdestruct(_to);\r\n    }\r\n \r\n}",
  "sourcePath": "C:/Users/ASUS/Desktop/Connect/contracts/Connect.sol",
  "compiler": {
    "name": "solc",
    "version": "0.5.16+commit.9c3226ce.Emscripten.clang"
  },
  "schemaVersion": "3.0.22",
  "updatedAt": "2020-07-20T21:13:22.083Z",
  "devdoc": {
    "author": "Abhishek Vispute",
    "methods": {},
    "title": "Connect"
  },
  "userdoc": {
    "methods": {}
  }
}